:04000000CDEF3FF011
:107F9A000001D0EF3FF0700ED36E000ED26E800E4D
:107FAA009B6E000EB56ED2AEFED7000E896E000E25
:107FBA008A6E000E8B6E000E926E000E936E000E8D
:107FCA00946E000E0F015D6F000E5C6F000E5B6F0A
:107FDA00000E856EF18E010E826E010E806E00D04B
:107FEA0000D000F0000E806E00D000D000F0030E2A
:067FFA00E82EFED7F0D7CF
:020000040020DA
:08000000FFFFFFFFFFFFFFFF00
:020000040030CA
:0E00000023285F3CFFD385FF0FC00FE00F40A9
:00000001FF
