:0400000092EF3FF04C
:107F2400000195EF3FF0700ED36E000ED26E800EFE
:107F34009B6E000EB56ED2AEFED7000E896E000E9B
:107F44008A6E000E8B6E000E926E000E936E000E03
:107F5400946E000E0F015D6F000E5C6F000E5B6F80
:107F6400000E856EF18E070E826E010E816E070E75
:107F7400E82EFED700F0010E806E070EE82EFED725
:107F840000F0000E806E0B0EE82EFED700F0020EFD
:107F9400816E070EE82EFED700F0020E806E070EEB
:107FA400E82EFED700F0000E806E0B0EE82EFED7F2
:107FB40000F0040E816E070EE82EFED700F0040ECA
:107FC400806E070EE82EFED700F0000E806E0B0EBA
:107FD400E82EFED700F0080E816E070EE82EFED7BD
:107FE40000F0040E806E070EE82EFED700F0000E9F
:0C7FF400806E0B0EE82EFED700F0B7D711
:020000040020DA
:08000000FFFFFFFFFFFFFFFF00
:020000040030CA
:0E00000023285F3CFF9385FF0FC00FE00F40E9
:00000001FF
